:020000040800F2
:1000000000000220D9330008E50C0008E70C0008C6
:10001000E90C0008EB0C0008ED0C000800000000E3
:10002000000000000000000000000000EF0C0008CD
:10003000F10C000800000000F30C0008F50C0008AB
:10004000293400082934000829340008293400081C
:10005000293400082934000829340008293400080C
:1000600029340008293400082934000829340008FC
:1000700029340008293400082934000829340008EC
:100080002934000829340008293400080000000041
:1000900000000000000000000000000029340008FB
:1000A00029340008293400082934000829340008BC
:1000B00029340008293400082934000829340008AC
:1000C000293400082934000829340008293400089C
:1000D00029340008293400082934000800000000F1
:1000E00029340008293400082934000800000000E1
:1000F000000000000000000000000000293400089B
:1001000000000000293400082934000829340008C0
:1001100000000000000000000000000000000000DF
:10012000293400082934000829340008293400083B
:10013000293400080000000000000000000000005A
:10014000000000000000000000000000293400084A
:10015000293400082934000829340008293400080B
:1001600029340008293400080000000000000000C5
:10017000000000000000000000000000000000007F
:10018000000000002934000800000000000000000A
:0801900029340008293400089D
:1001A00010B5054C237833B9044B13B10448AFF3B1
:1001B00000800123237010BD7000002000000000AB
:1001C0009445000808B5034B1BB103490348AFF33E
:1001D000008008BD00000000740000209445000865
:1001E000034613F8012B002AFBD1181A0138704777
:1001F00001F0FF01102A2BDB10F0070F08D010F8D8
:10020000013B013A8B422DD010F0070F42B3F6D1DB
:10021000F0B441EA012141EA014122F007047FF0F4
:1002200000070023F0E80256083C85EA010586EA4B
:10023000010685FA47F5A3FA87F586FA47F6A5FA87
:1002400087F68EB9EED1F0BC01F0FF0102F0070293
:1002500032B110F8013B013A83EA010313B1F8D13E
:100260000020704701387047002D06BF354603381F
:10027000073815F0010F07D1013015F4807F02BF58
:10028000013015F4C03F0130F0BC0138704700BFA9
:1002900053B94AB9002908BF00281CBF4FF0FF31ED
:1002A0004FF0FF3000F074B9ADF1080C6DE904CEE9
:1002B00000F006F8DDF804E0DDE9022304B0704741
:1002C0002DE9F047089D04468E46002B4DD18A4209
:1002D000944669D9B2FA82F252B101FA02F3C2F13C
:1002E000200120FA01F10CFA02FC41EA030E9440CD
:1002F0004FEA1C48210CBEFBF8F61FFA8CF708FBEE
:1003000016E341EA034306FB07F199420AD91CEBC5
:10031000030306F1FF3080F01F81994240F21C81F7
:10032000023E63445B1AA4B2B3FBF8F008FB10333F
:1003300044EA034400FB07F7A7420AD91CEB040474
:1003400000F1FF3380F00A81A74240F20781644444
:10035000023840EA0640E41B00261DB1D4400023C9
:10036000C5E900433146BDE8F0878B4209D9002D2D
:1003700000F0EF800026C5E9000130463146BDE8B7
:10038000F087B3FA83F6002E4AD18B4202D3824221
:1003900000F2F980841A61EB030301209E46002DD0
:1003A000E0D0C5E9004EDDE702B9FFDEB2FA82F225
:1003B000002A40F09280A1EB0C014FEA1C471FFA83
:1003C0008CFE0126200CB1FBF7F307FB131140EA6A
:1003D00001410EFB03F0884208D91CEB010103F137
:1003E000FF3802D2884200F2CB804346091AA4B2F9
:1003F000B1FBF7F007FB101144EA01440EFB00FECD
:10040000A64508D91CEB040400F1FF3102D2A64531
:1004100000F2BB800846A4EB0E0440EA03409CE7D0
:10042000C6F12007B34022FA07FC4CEA030C20FA7D
:1004300007F401FA06F31C43F9404FEA1C4900FA9D
:1004400006F3B1FBF9F8200C1FFA8CFE09FB18111A
:1004500040EA014108FB0EF0884202FA06F20BD98D
:100460001CEB010108F1FF3A80F08880884240F2DD
:100470008580A8F102086144091AA4B2B1FBF9F021
:1004800009FB101144EA014100FB0EFE8E4508D91C
:100490001CEB010100F1FF346CD28E456AD90238A1
:1004A000614440EA0840A0FB0294A1EB0E01A14286
:1004B000C846A64656D353D05DB1B3EB080261EBF4
:1004C0000E0101FA07F722FA06F3F1401F43C5E9CE
:1004D000007100263146BDE8F087C2F12003D84004
:1004E0000CFA02FC21FA03F3914001434FEA1C4746
:1004F0001FFA8CFEB3FBF7F007FB10360B0C43EA38
:10050000064300FB0EF69E4204FA02F408D91CEBE7
:10051000030300F1FF382FD29E422DD902386344E5
:100520009B1B89B2B3FBF7F607FB163341EA034185
:1005300006FB0EF38B4208D91CEB010106F1FF38D4
:1005400016D28B4214D9023E6144C91A46EA0046CB
:1005500038E72E46284605E70646E3E61846F8E65D
:100560004B45A9D2B9EB020864EB0C0E0138A3E7A6
:100570004646EAE7204694E74046D1E7D0467BE787
:10058000023B614432E7304609E76444023842E7FF
:10059000704700BF00B585B00301DBB200F0F0008A
:1005A00040F00C028DF80C2040F008008DF80D0092
:1005B00043F00C028DF80E2043F008038DF80F3045
:1005C000C8230093042303AA044909780448006857
:1005D00000F058FF05B05DF804FB00BF8C00002060
:1005E000AC01002000B585B00301DBB200F0F000E3
:1005F00040F00D028DF80C2040F009008DF80D0040
:1006000043F00D028DF80E2043F009038DF80F30F2
:10061000C8230093042303AA044909780448006806
:1006200000F030FF05B05DF804FB00BF8C00002037
:10063000AC01002070B588B00024039404940594A4
:100640000694079400941C4B1A6B42F080021A63C4
:100650001A6B02F080020092009A01941A6B42F029
:1006600001021A631A6B02F001020192019A0294CC
:100670001A6B42F002021A631B6B03F0020302932F
:10068000029B0E4D22464021284601F001FE4023E8
:100690000393012604960594069403A9284601F0C5
:1006A00021FD2023039304960594069403A928466C
:1006B00001F018FD08B070BD00380240000402408F
:1006C00010B50446322001F0A3FE2B4B1C604FF402
:1006D000FA7305224E21204601F004F9E8BB274BAE
:1006E0004E221A702D2001F093FE3020FFF752FFAA
:1006F000052001F08DFE3020FFF74CFF012001F0B6
:1007000087FE3020FFF746FF082001F081FE202001
:10071000FFF740FF082001F07BFE2820FFF73AFF9B
:10072000012001F075FE0820FFF734FF012001F0E1
:100730006FFE0120FFF72EFF032001F069FE062067
:10074000FFF728FF012001F063FE0C20FFF722FFD6
:10075000032001F05DFE012010BD4FF4FA73052265
:100760007E210548006801F0BDF818B9034B7E22D0
:100770001A70B7E70020EFE7AC0100208C000020E2
:100780000FB410B586B008AA52F8041B009201A855
:1007900002F024FF002401A8FFF722FD84420AD2C0
:1007A0000F2C08D806AB234413F8140CFFF71AFFDC
:1007B0000134E4B2EFE706B0BDE8104004B0704782
:1007C00008B52021034801F069FD4FF4967001F04F
:1007D0001FFE08BD0004024008B52021034801F0B7
:1007E0005DFD962001F014FE08BD00BF000402402C
:1007F00008B5FFF7E5FFFFF7EFFFFFF7E1FFFFF7B2
:10080000EBFFFFF7DDFF08BD08B5FFF7D9FFFFF7E6
:10081000D7FF08BD08B5FFF7DFFFFFF7DDFFFFF7E4
:10082000CFFF08BD08B5FFF7E3FFFFF7EDFFFFF7C8
:10083000DFFFFFF7EFFF08BD10B586B0044612E0FA
:1008400020210F4801F02AFD22880E4904A802F059
:100850008FFE4FF6FF73062204A90B4801F03BFF01
:10086000208801F0D5FD03AB02AA01A9074802F0D8
:1008700054FC039B13F1050FE2DA06B010BD00BF74
:1008800000040240B84500086C01002090000020E0
:1008900030B593B00023ADF8463008E00A2B03DDF5
:1008A000BDF84630C82B3AD82D2001F0B1FD04AB7D
:1008B00003AA02A9414802F030FC049B0093039B69
:1008C000029A3F4907A802F053FE4FF6FF73122227
:1008D00007A93C4801F0FFFE049B002B41DBBDF85B
:1008E000463013B12D33ADF84630039B0A2BD5DDCE
:1008F000BDF84620002AD1D10132ADF84620324B56
:100900000DF1300C0FCBACE807008CF800304FF63F
:10091000FF730D220CA92B4801F0DDFEC4E72D3337
:100920001FFA83FCADF846C00DF1300E274C0FCCFA
:10093000AEE80F002368CEF800306246244905A8CF
:1009400002F016FE1F4C4FF6FF7314220CA920462E
:1009500001F0C1FE4FF6FF73062205A9204601F003
:10096000BAFEBDF84620B2F5967F01D813B030BD6F
:10097000174907A802F0FCFD164B0CAC93E80300E6
:1009800084E803000F4D4FF6FF73082221462846E6
:1009900001F0A1FE4FF6FF73062207A9284601F0D9
:1009A0009AFE07A8FFF7ECFE4FF4FA6001F030FD65
:1009B0000DF14600FFF740FFD8E700BF9000002090
:1009C000AC4500086C010020C0450008D045000877
:1009D000B8450008E445000872B6FEE708B50A48C5
:1009E0000A4B03600A4B436000238360C3604FF4EB
:1009F0008042026143618361C361036200F064FC71
:100A000000B908BDFFF7E8FFC00000200054004017
:100A1000A086010008B50A480A4B03604FF4E13391
:100A2000436000238360C36003610C2242618361E1
:100A3000C36101F021FE00B908BDFFF7CDFF00BF83
:100A40006C0100200044004008B50E480E4B0360C6
:100A50004FF48273436000238360C360022202610B
:100A6000012242614FF4007282612822C261036256
:100A7000436283620A23C36201F072FF00B908BDBA
:100A8000FFF7AAFF140100200030014000B595B027
:100A90003022002108A802F0EDFC00230393049308
:100AA00005930693079301931E4A116C41F0805100
:100AB0001164126C02F080520192019A02931A4A58
:100AC000116841F440411160126802F44042029200
:100AD000029A0222089201210B9110210C910E9290
:100AE0000F93082310935A23119312920423139304
:100AF00008A800F0C1FF80B90F23039302210491DD
:100B0000002305934FF480520692079303A801F047
:100B100013FA20B915B05DF804FBFFF75DFFFFF78E
:100B20005BFF00BF003802400070004070B596B017
:100B300001F042FCFFF7AAFFFFF77CFDFFF74EFF35
:100B4000FFF768FFFFF780FF5A4C40235A4A5B4982
:100B5000204602F0ABFA204602F0CEFA10212046E1
:100B600002F0F8FA0021204602F019FB00231A4691
:100B70000121204602F095FB4B21204602F040FB6C
:100B800000231A460121204602F0AFFB4B212046EC
:100B900002F042FB0A21204602F04AFB0023012218
:100BA0001946204602F0C5FB6421204602F0FEFAF9
:100BB0001421204602F006FBC821204602F00EFB5D
:100BC0004FF4C871204602F00FFB0721204602F0C7
:100BD0003BFB1E21204602F043FB0121204602F090
:100BE000EEFB0121204602F0DEFB0121204602F04F
:100BF000CEFB0121204602F0BEFB0121204602F07F
:100C0000AEFB2F48FFF75CFD48BB2E48FFF7B8FD51
:100C100010AC2D4D0FCD0FC495E8030084E8030000
:100C20002A4D4FF6FF73182210A9284601F053FDF4
:100C3000274802F095FC274802F092FC0AAC264EA9
:100C40000FCE0FC496E8030044F8040B21704FF652
:100C5000FF7315220AA9284601F03DFD1EE005ACF0
:100C60001E4D0FCD0FC42B6823804FF6FF73122249
:100C700005A9164801F02FFDC7E7FFF7D3FD049B38
:100C80000093039B029A164905A802F071FC4FF6E7
:100C9000FF73122205A90D4801F01DFD04AB03AA44
:100CA00002A9044802F039FA049B002BE5DBFFF7A8
:100CB000EFFDE4E790000020000402401401002052
:100CC000C00000202C460008384600086C010020B7
:100CD00010460008EC45000814460008504600087D
:100CE000AC450008FEE7FEE7FEE7FEE7FEE77047DB
:100CF0007047704708B501F079FB08BD82B000214C
:100D000000910B4B5A6C42F480425A645A6C02F4C4
:100D100080420092009A01911A6C42F080521A644B
:100D20001B6C03F080530193019B02B0704700BF1E
:100D30000038024030B589B0002303930493059333
:100D4000069307930268154B9A4201D009B030BD53
:100D500000250195124C236B43F002032363236BA0
:100D600003F002030193019B4FF44073039312239A
:100D7000049301230593032306930423079303A9F4
:100D8000084801F0AFF90295236C43F40013236483
:100D9000236C03F400130293029BD7E70054004036
:100DA000003802400004024000B589B000230393DC
:100DB00004930593069307930268154B9A4202D059
:100DC00009B05DF804FB0021019103F584335A6CEE
:100DD00042F480525A645A6C02F480520192019A91
:100DE00002911A6B42F001021A631B6B03F00103BC
:100DF0000293029BE02303930223049303230693AD
:100E00000523079303A9034801F06CF9D8E700BF55
:100E1000003001400000024000B589B00023039378
:100E200004930593069307930268154B9A4202D0E8
:100E300009B05DF804FB0021019103F5FA331A6C47
:100E400042F400321A641A6C02F400320192019AE0
:100E500002911A6B42F001021A631B6B03F001034B
:100E60000293029B0C230393022304930323069310
:100E70000723079303A9034801F034F9D8E700BF1B
:100E8000004400400000024003685A6912F4806F79
:100E900001D1002070476FF480625A610023036320
:100EA000202280F83D2080F83E30026C42F004029F
:100EB000026480F83C30012070472DE9F04107467C
:100EC0000D4690461E4624E001F09CFA069BC01A8F
:100ED000B04200D8EEB900233B63202287F83D20C2
:100EE00087F83E303A6C42F020023A6487F83C3092
:100EF00001201EE03B689C6925EA040C1FFA8CFC6B
:100F0000BCFA8CFC4FEA5C1CE04511D1B6F1FF3F06
:100F1000DAD1C5F30743012BECD13B685B6925EAC5
:100F2000030C1FFA8CFCBCFA8CFC4FEA5C1CEBE750
:100F30000020BDE8F0812DE9F04105460E46174638
:100F400098463DE01A6842F400721A602B686FF40C
:100F500080625A6100232B63202285F83D2085F8AA
:100F60003E302A6C42F004022A6485F83C300120AD
:100F700034E001F047FAA0EB0800B84200D8FFB90E
:100F800000232B63202285F83D2085F83E302A6C13
:100F900042F020022A6485F83C3001201EE02B68D4
:100FA0009C6926EA0404A4B2003C18BF0124A4B141
:100FB0002B685A6912F4806FC4D1B7F1FF3FD8D1C2
:100FC000C6F30743012BEAD12B685C6926EA0404C7
:100FD000A4B2003C18BF0124E9E70020BDE8F0817D
:100FE000F0B583B004460D4616461F46C36A082B6B
:100FF0000DD0012B0BD013F5803F08D0036B122BC3
:101000000AD10268136843F48073136004E0226815
:10101000136843F4807313600097334600224FF047
:1010200001112046FFF749FF80B92369B3F5804FCE
:1010300016D1236805F0FE051D613B463246134973
:101040002046FFF778FFF8B903B0F0BD23681B68AE
:1010500013F4807F02D04FF4007323640320F3E77E
:10106000EB11226803F0060343F0F00313613B46E3
:10107000324607492046FFF75EFF18B92368EDB2F4
:101080001D61DAE70120DFE70120DDE70200010052
:10109000080001002DE9F04184B004460D461646D3
:1010A0001F46C26A01680B6843F480630B60082A1C
:1010B0000DD0012A0BD012F5803F08D0036B112B05
:1010C0000AD10268136843F48073136004E0226855
:1010D000136843F4807313600097334600224FF087
:1010E00001112046FFF7E9FE98B92369B3F5804F57
:1010F00019D1236845F00105EDB21D613B4632462A
:101100002A492046FFF717FF00284CD104B0BDE85C
:10111000F08123681B6813F4807F02D04FF40073C2
:1011200023640320F2E74FEAE51808F00608236875
:1011300048F0F0021A613B4632461D492046FFF74F
:10114000FAFE08B10120E1E72368EDB21D613B46DC
:10115000324616492046FFF7EEFE08B10120D5E7DA
:1011600000220392236859690391996903910399B5
:10117000196841F480711960009733464FF00111EE
:101180002046FFF79AFE20B9226848F0F103136168
:10119000B4E723681B6813F4807F02D04FF4007318
:1011A00023640320B2E70120B0E700BF0200010082
:1011B0000800010070B504460D46164623685B69B9
:1011C00013F0800F1CD12046FFF75EFED0B9B5F1B9
:1011D000FF3FF3D001F016F9801BA84201D8002D83
:1011E000ECD100232363202284F83D2084F83E3094
:1011F000226C42F02002226484F83C30012000E09E
:10120000002070BD0120FCE770B504460D4616466F
:1012100023685B6913F0040F1CD12046FFF734FEEE
:10122000D0B9B5F1FF3FF3D001F0ECF8801BA84234
:1012300001D8002DECD100232363202284F83D2027
:1012400084F83E30226C42F02002226484F83C3064
:10125000012000E0002070BD0120FCE770B50546CC
:101260000C4616462B68596911F0400F29D159696F
:1012700011F0100F15D101F0C5F8801BA04201D864
:10128000002CEFD100232B63202285F83D2085F828
:101290003E302A6C42F020022A6485F83C3001205E
:1012A00070BD6FF010025A6100232B63202285F875
:1012B0003D2085F83E302A6C2A6485F83C300120B8
:1012C000EEE70020ECE70000002800F0CC8070B5CD
:1012D000044690F83D30002B77D0242384F83D302D
:1012E0002268136823F0010313602268136843F433
:1012F000004313602268136823F40043136000F076
:10130000D1FE62685A4B9A4264D85A4B98428CBFBD
:1013100000230123002B40F0A8805749A1FB003196
:101320008B0C25686A6822F03F0242EA91426A60AB
:1013300021680A6A22F03F0266684D4DAE424FD8DE
:10134000013313430B622168CA6922F44F4222F031
:10135000FF026668464B9E424CD8431E7600B3FBA4
:10136000F6F3013340F6FC70034278D0C3F30B036D
:101370001343CB6121680B6823F0C003E269206A44
:10138000024313430B6021688B6823F4034323F06B
:10139000FF032269E068024313438B602168CB6836
:1013A00023F0FF036269A06902431343CB60226804
:1013B000136843F00103136000202064202384F8A5
:1013C0003D30206384F83E0070BD80F83C30FFF76C
:1013D000B1FC82E7294B98428CBF0023012399E797
:1013E0004FF4967505FB03F3254DA5FB03539B09AD
:1013F0000133A6E7A368BBB9451E06EB460CB5FB57
:10140000FCF50135C5F30B05B5FA85F56D0945BB4E
:10141000C3B9013806EB4603B0FBF3F30133C3F362
:101420000B0343F40043A3E7451E06EB860C0CEBCD
:101430008C0CB5FBFCF50135C5F30B05B5FA85F54C
:101440006D09E4E7013806EB860303EB8303B0FB89
:10145000F3F30133C3F30B0343F4404388E704235E
:1014600086E7012384E7012070470120ACE700BF35
:10147000A08601007F841E0083DE1B43FF083D0021
:10148000D34D62102DE9F04385B004460F469146D6
:1014900098460C9E00F0B6FF054694F83D00C0B299
:1014A000202804D00227384605B0BDE8F083009517
:1014B000192301224F492046FFF7FFFC002840F086
:1014C000928094F83C30012B00F08F80012384F847
:1014D0003C3023681A6812F0010F03D11A6842F0F9
:1014E00001021A602268136823F400631360212349
:1014F00084F83D30102384F83E3000232364C4F880
:101500002490A4F82A80638D23853B4BE3622B460D
:10151000324639462046FFF763FD0746002866D16C
:101520000023039323685A6903929B690393039BE7
:1015300011E0236C042B01D00127B4E72268136863
:1015400043F400731360F7E72A4631462046FFF75D
:101550005BFE00282ED1238D002B36D02A46314643
:101560002046FFF727FE0028E3D1626A236812783D
:101570001A61606A431C6362618D89B2013989B264
:101580006185238D013B9BB223852268516911F04F
:10159000040FD9D0002BD7D043781361636A01338D
:1015A0006362638D9BB2013B9BB26385238D013BDC
:1015B0002385C9E7236C042B01D0012773E7226838
:1015C000136843F400731360F7E72268136843F469
:1015D00000731360202384F83D30002384F83E30EC
:1015E00084F83C305FE702275DE702275BE70127CD
:1015F00059E700BF020010000000FFFF2DE9F04393
:1016000087B004460F46914698460E9E00F0FAFEBB
:10161000054694F83D00C0B2202804D00227384681
:1016200007B0BDE8F08300951923012289492046BF
:10163000FFF743FC002840F0458194F83C30012B33
:1016400000F04281012384F83C3023681A6812F0CC
:10165000010F03D11A6842F001021A602268136870
:1016600023F400631360222384F83D30102384F8B0
:101670003E3000232364C4F82490A4F82A80638DAC
:101680002385754BE3622B46324639462046FFF7E9
:1016900001FD0746002840F01981238D5BB90293B4
:1016A00023685A6902929A690292029A1A6842F46D
:1016B00000721A607AE0012B0FD0022B1FD0226833
:1016C000136843F4806313600023059323685A6909
:1016D00005929B690593059B68E02268136823F4D3
:1016E000806313600023039323685A6903929A6905
:1016F0000392039A1A6842F400721A6056E0226854
:10170000136823F4806313602268136843F4006352
:1017100013600023049323685A6904929B6904931D
:10172000049B43E02A4631462046FFF797FD0028F8
:1017300040F0CE8023681A69636A1A70636A0133C5
:101740006362238D013B2385638D9BB2013B9BB27A
:1017500063852BE000953346002240492046FFF781
:10176000ACFB002840F0B6802268136843F4007395
:10177000136023681A69636A1A70626A531C636291
:10178000238D013B2385638D9BB2013B9BB2638517
:1017900023681B695370636A01336362238D013BC5
:1017A0002385638D9BB2013B9BB26385218D00290C
:1017B0007FD0032954D80129B4D00229CAD000957A
:1017C0003346002225492046FFF777FB002840F0EA
:1017D00083802268136823F48063136023681A6986
:1017E000636A1A70636A01336362238D013B238548
:1017F000618D89B2013989B2618500953346002235
:1018000016492046FFF759FB002867D12268136864
:1018100043F40073136023681A69636A1A70626A7A
:10182000531C6362238D013B2385638D9BB2013B77
:101830009BB2638523681B695370636A01336362DB
:10184000238D013B2385638D9BB2013B9BB2638556
:10185000ACE700BF020010000000FFFF0400010021
:101860002A4631462046FFF7F9FC002838D1236884
:101870001A69636A1A70626A531C6362238D013BA2
:101880002385638D9BB2013B9BB2638523685969B5
:1018900011F0040F8AD01B695370636A01336362CD
:1018A000238D013B2385638D9BB2013B9BB26385F6
:1018B0007CE7202384F83D30002384F83E3084F810
:1018C0003C30ACE60227AAE60227A8E60127A6E6F6
:1018D0000127A4E60127A2E60127A0E601279EE64C
:1018E00001279CE62DE9F04385B0044688469146E1
:1018F0001D4600F087FD94F83D30DBB2202B03D06D
:10190000022005B0BDE8F0830646009019230122AD
:1019100058492046FFF7D1FA002840F0A28094F8F9
:101920003C30012B00F09F80012384F83C30236879
:101930001A6812F0010F03D11A6842F001021A600E
:101940002268136823F400631360242384F83D3075
:1019500000232364A3F58033E362012740E023687A
:101960001B6813F4807F02D04FF4007323640320BC
:10197000C7E7A02384F83D3022685369C3F34003CE
:101980005269C2F3802294F83DC05FFA8CFCBCF12E
:10199000A00F09D043B93AB900F034FD801BA8422A
:1019A000E7D8002DE8D1E4E7202384F83D30236810
:1019B0005A6912F0020F31D11A6842F400721A60AB
:1019C00023686FF480625A61009619230122294925
:1019D0002046FFF772FA002849D101374F4538D227
:1019E0002268136843F48073136000962B4600222C
:1019F0004FF001112046FFF760FA0028AFD12368AD
:101A000008F0FE021A6100F0FDFC064622685369E8
:101A1000C3F340035269C2F38022B4E71A6842F468
:101A200000721A600023039323685A6903929B692A
:101A30000393039B0096192301220E492046FFF7CA
:101A40003CFA90B9202384F83D30002384F83C30E0
:101A500057E7202384F83D30002384F83C300120F0
:101A60004FE702204DE702204BE7012049E7012024
:101A700047E700BF02001000002800F0DA8170B5CF
:101A800082B00446036813F0010F3BD09F4B9B6864
:101A900003F00C03042B2CD09C4B9B6803F00C032D
:101AA000082B21D06368B3F5803F4FD0B3F5A02F4A
:101AB00052D0964B1A6822F480321A601A6822F4C7
:101AC00080221A606368002B50D000F09BFC054612
:101AD0008E4B1B6813F4003F14D100F093FC401BA5
:101AE0006428F5D90320ABE1884B5B6813F4800FC1
:101AF000D8D0864B1B6813F4003F03D06368002BDB
:101B000000F09981236813F0020F54D07F4B9B683B
:101B100013F00C0F3ED07D4B9B6803F00C03082B99
:101B200033D0E368002B68D0794B01221A6000F0B3
:101B300069FC0546754B1B6813F0020F54D100F089
:101B400061FC401B0228F5D9032079E16F4A136834
:101B500043F480331360B5E76C4B1A6842F480227B
:101B60001A601A6842F480321A60ABE700F04AFC4F
:101B70000546664B1B6813F4003FC3D000F042FCDF
:101B8000401B6428F5D903205AE1604B5B6813F4CD
:101B9000800FC6D15D4B1B6813F0020F03D0E368C2
:101BA000012B40F04A81594A136823F0F803216958
:101BB00043EAC1031360236813F0080F42D063693E
:101BC0006BB3534B0122C3F8802E00F01BFC05467B
:101BD0004E4B5B6F13F0020F34D100F013FC401B2F
:101BE0000228F5D903202BE1484A136823F0F803B3
:101BF000216943EAC1031360DDE7454B00221A6007
:101C000000F000FC0546414B1B6813F0020FD2D0D8
:101C100000F0F8FB401B0228F5D9032010E13C4BF3
:101C20000022C3F8802E00F0EDFB0546374B5B6FBA
:101C300013F0020F06D000F0E5FB401B0228F5D997
:101C40000320FDE0236813F0040F77D02F4B1B6CAB
:101C500013F0805F33D1002301932C4B1A6C42F0B8
:101C600080521A641B6C03F080530193019B012581
:101C7000284B1B6813F4807F23D0A368012B34D03A
:101C8000052B38D0214B1A6F22F001021A671A6F08
:101C900022F004021A67A368002B3DD000F0B2FBCB
:101CA00006461A4B1B6F13F0020F46D100F0AAFB39
:101CB000801B41F288339842F3D90320C0E000250D
:101CC000D6E7144A136843F48073136000F09AFB5C
:101CD0000646104B1B6813F4807FCED100F092FBB8
:101CE000801B0228F5D90320AAE0084A136F43F0AD
:101CF00001031367CFE7054B1A6F42F004021A671E
:101D00001A6F42F001021A67C5E700BF00380240AF
:101D1000000047420070004000F074FB06464F4B45
:101D20001B6F13F0020F08D000F06CFB801B41F218
:101D300088339842F3D9032082E0E5B9A369002BE8
:101D40007DD0464A926802F00C02082A51D0022B3C
:101D500017D0434B00221A6600F054FB04463F4B59
:101D60001B6813F0007F42D000F04CFB001B0228E0
:101D7000F5D9032064E0394A136C23F080531364CF
:101D8000DCE7374B00221A6600F03CFB0546334B7C
:101D90001B6813F0007F06D000F034FB401B0228C4
:101DA000F5D903204CE0E369226A1343626A43EAEF
:101DB0008213A26A5208013A43EA0243E26A43EA02
:101DC0000263264A5360264B01221A6600F01AFB72
:101DD0000446224B1B6813F0007F06D100F012FB73
:101DE000001B0228F5D903202AE0002028E000206B
:101DF00026E0012B26D0194B5B6803F48001E269D1
:101E0000914221D103F03F02216A8A421ED1616AC8
:101E100047F6C0721A408A421AD103F44032A16ACE
:101E20008A4217D103F07063E26A934214D1002012
:101E300006E001207047012002E0012000E00020C0
:101E400002B070BD0120FBE70120F9E70120F7E7B0
:101E50000120F5E70120F3E70120F1E70038024017
:101E60000000474208B5314B9B6803F00C03042B7C
:101E700057D0082B57D12D4B5A6802F03F025B68B0
:101E800013F4800F2AD0294B5968C1F3881C4FEAFC
:101E90004C11B1EB0C006EEB0E0E4FEA8E1343EAC1
:101EA00090638101091A63EB0E03DB0043EA51736F
:101EB000C90011EB0C0C43F10003590200234FEA57
:101EC0004C2041EADC51FEF7E3F9184B5B68C3F3A1
:101ED000014301335B00B0FBF3F025E0134B59687D
:101EE000C1F3881C4FEA4C11B1EB0C006EEB0E0EE7
:101EF0004FEA8E1343EA90638101091A63EB0E03E4
:101F0000DB0043EA5173C90011EB0C0C43F10003F1
:101F1000990200234FEA8C2041EA9C51FEF7B8F960
:101F2000D3E7034800E0034808BD00BF0038024083
:101F300000127A000024F400002800F09B8070B5A5
:101F40000D4604464F4B1B6803F00F038B4208D22B
:101F5000CBB24C4A1370136803F00F038B4240F06E
:101F60008B80236813F0020F17D013F0040F04D0F6
:101F7000454A936843F4E0539360236813F0080FD5
:101F800004D0414A936843F4604393603E4A9368A7
:101F900023F0F003A1680B439360236813F0010F53
:101FA00032D06368012B21D09A1E012A25D9364AE6
:101FB000126812F0020F61D033498A6822F00302DE
:101FC00013438B6000F01EFA06462F4B9B6803F00C
:101FD0000C036268B3EB820F16D000F013FA801B7B
:101FE00041F288339842F0D9032042E0264A126831
:101FF00012F4003FE0D101203BE0234A126812F0C6
:10200000007FD9D1012034E01E4B1B6803F00F0381
:10201000AB4207D9EAB21B4B1A701B6803F00F03DF
:10202000AB422DD1236813F0040F06D0164A9368F3
:1020300023F4E053E1680B439360236813F0080F27
:1020400007D0114A936823F46043216943EAC1032E
:102050009360FFF707FF0C4B9B68C3F303130B4A16
:10206000D35CD8400A4B18600A4B186800F07EF920
:10207000002070BD012070470120FAE70120F8E739
:102080000120F6E7003C02400038024064460008A8
:102090000800002004000020014B1868704700BFB2
:1020A0000800002008B5FFF7F7FF044B9B68C3F357
:1020B0008223034AD35CD84008BD00BF00380240E9
:1020C0007446000808B5FFF7E7FF044B9B68C3F3AD
:1020D0004233034AD35CD84008BD00BF00380240F9
:1020E0007446000800230F2B00F2C880F0B583B0BF
:1020F0003AE0042200E00022AA4032430234604D5C
:1021000045F824205F4A14686FEA0C0224EA0C05A3
:102110004E6816F4803F01D04CEA0405594C256006
:10212000646802EA04054E6816F4003F01D04CEAE8
:102130000405544C6560A46802EA04054E6816F470
:10214000801F01D04CEA04054E4CA560E468224093
:102150004D6815F4001F01D04CEA0402494CE260BE
:1021600001330F2B00F2888001229A400C6804EAA8
:10217000020C32EA0404F3D14C68651E012D03D928
:10218000112C01D0122C12D185685E000324B440BA
:1021900025EA0405CC68B4402C438460456825EAF0
:1021A00002054C68C4F300129A402A434260C56895
:1021B0004FEA430E032404FA0EF4E24325EA040531
:1021C0008C6804FA0EF42C43C4604C68022C01D0D5
:1021D000122C0FD1DD08083550F8257003F00704E4
:1021E000A6000F24B44027EA04070C69B4403C431E
:1021F00040F82540046814404A6802F0030202FADD
:102200000EF2224302604A6812F0805FA8D00022DA
:1022100001921D4A546C44F480445464526C02F49C
:1022200080420192019A9C08A51C154A52F825602B
:1022300003F0030295000F22AA4026EA0206134A81
:1022400090423FF458AF02F5806290420ED002F502
:10225000806290420CD002F5806290420AD002F572
:10226000806290423FF445AF072245E7012243E7F1
:10227000022241E703223FE703B0F0BD704700BFF1
:1022800000380140003C014000380240000002409C
:102290000AB181617047090481617047436931EA7D
:1022A000030301D081617047090481617047000018
:1022B000074AD36823F4E0631B041B0C000200F4FC
:1022C000E060034343F0BF6343F40033D3607047DF
:1022D00000ED00E000B5194BDB68C3F30223C3F146
:1022E000070CBCF1040F28BF4FF0040C03F1040EDF
:1022F000BEF1060F18D9033B4FF0FF3E0EFA0CFC5F
:1023000021EA0C0199400EFA03F322EA0303194370
:1023100000280BDB0901C9B200F1604000F5614003
:1023200080F800135DF804FB0023E5E700F00F00E0
:102330000901C9B2024B1954F4E700BF00ED00E0F7
:1023400014ED00E00138B0F1807F0BD24FF0E023B4
:102350005861054AF02182F8231000209861072275
:102360001A6170470120704700ED00E010B5044687
:102370000E4B18784FF47A73B3FBF0F30C4A1068E5
:10238000B0FBF3F0FFF7DEFF68B90F2C01D9012095
:102390000AE0002221464FF0FF30FFF79BFF054B7C
:1023A0001C60002000E0012010BD00BF00000020E4
:1023B000080000200400002008B50B4B1A6842F406
:1023C00000721A601A6842F480621A601A6842F455
:1023D00080721A600320FFF76BFF0020FFF7C6FF33
:1023E000FEF78CFC002008BD003C0240034A116847
:1023F000034B1B780B441360704700BFB0010020F3
:1024000000000020014B1868704700BFB001002099
:1024100038B50446FFF7F6FF0546B4F1FF3F02D09A
:10242000044B1B781C44FFF7EDFF401BA042FAD37E
:1024300038BD00BF0000002038B5044602681369AB
:1024400023F44053C1680B4313618368026913434B
:1024500042691343C2691A430168CB6823F41643E7
:1024600023F00C031343CB600268536923F44073D9
:1024700081690B435361C369B3F5004F35D00368DD
:10248000604A934200F0918002F58062934200F02E
:102490008C80FFF707FE0021031849411B1841F10A
:1024A0000001C90041EA5371DB00181863684FEA64
:1024B00083024FEA937341F10001FDF7E9FE524DAB
:1024C000A5FB00325109642303FB11031B013233C6
:1024D000A5FB03235B0903F0F00202EB011203F0FA
:1024E0000F03216813448B608AE00368454A9342D6
:1024F0002FD002F5806293422BD0FFF7D3FD00234B
:10250000021843EB0301121841F10001C90041EA2E
:102510005271D200101841F10001626892185B41BB
:10252000FDF7B6FE384DA5FB00325109642303FBCD
:102530001103DB003233A5FB03235B095A0002F4CD
:10254000F87202EB011203F00703216813448B6059
:1025500056E0FFF7B7FD0023021843EB0301121802
:1025600041F10001C90041EA5271D200101841F155
:102570000001626892185B41FDF78AFE224DA5FBBF
:1025800000325109642303FB1103DB003233A5FB46
:1025900003235B095A0002F4F87202EB011203F004
:1025A0000703216813448B602AE0FFF78BFD0021AD
:1025B000031849411B1841F10001C90041EA537158
:1025C000DB00181863684FEA83024FEA937341F106
:1025D0000001FDF75DFE0C4DA5FB0032510964239F
:1025E00003FB11031B013233A5FB03235B0903F03B
:1025F000F00202EB011203F00F03216813448B6019
:1026000038BD00BF001001401F85EB512DE9F84394
:1026100005460F4616469946DDF820802C6824684A
:1026200037EA04030CBF4FF0010C4FF0000CB44527
:102630001FD1B8F1FF3FF1D0B8F1000F05D0FFF77F
:10264000E1FEA0EB09004045E8D92A68D36823F4ED
:10265000D073D3602A68536923F0010353612023A8
:1026600085F8393085F83A30002385F83830032072
:1026700000E00020BDE8F88358B310B5044690F898
:1026800039300BB3242384F839302268D36823F41B
:102690000053D3602046FFF7CFFE2268136923F46E
:1026A000904313612268536923F02A03536122681F
:1026B000D36843F40053D3600020E063202384F800
:1026C000393084F83A3010BD80F83830FEF7A4FB7A
:1026D000D8E7012070472DE9F04383B01E4690F8FB
:1026E0003930DBB2202B56D104460D4690460029E6
:1026F00055D0002A55D090F83830012B53D0012303
:1027000080F838304FF00009C0F83C90212380F861
:102710003930FFF777FE0746A4F82480A4F8268016
:1027200084F8389010E000963B4600228021204635
:10273000FFF76CFF002838D12B882268C3F3080309
:1027400053602369CBB90235E38C9BB2BBB1E28CF9
:1027500092B2013A92B2E284A368B3F5805FE2D00C
:1027600000963B46002280212046FFF74FFFF0B93C
:1027700015F8012B23685A60E6E70135E4E7009677
:102780003B46002240212046FFF740FF88B9202326
:1027900084F8393000E0022003B0BDE8F083012066
:1027A000FAE70120F8E70220F6E70320F4E7032028
:1027B000F2E70320F0E70000054BD3F8882042F44D
:1027C0007002C3F888204FF000629A60704700BF23
:1027D00000ED00E02DE9F0410646884617461D460B
:1027E0003468A46838EA04030CBF4FF0010C4FF0C2
:1027F000000CBC4537D0B5F1FF3FF1D0FFF702FE2A
:10280000069BC01AA84201D2002DE9D13268536854
:1028100023F0E00353607368B3F5827F0BD0B36A93
:10282000B3F5005F14D0012386F85130002386F8F9
:102830005030032018E0B368B3F5004F02D0B3F571
:10284000806FECD13268136823F040031360E6E731
:102850003268136823F4005313603268136843F43A
:1028600000531360DFE70020BDE8F08110B584B0AD
:102870000446164B1868164BA3FB0030400D4FF46E
:102880007A7303FB00F003906368B3F5827F0BD08B
:10289000039BBBB1039B013B039323689B6813F02D
:1028A000800FF5D100200EE000920B46002280211F
:1028B0002046FFF78FFF30B1636D43F0200363655F
:1028C000032000E0002004B010BD00BF080000207D
:1028D000819F5E1610B582B004460B464168B1F583
:1028E000827F14D06168B1F5827F2AD1A168B1F5E9
:1028F000806F19D00092002280212046FFF76AFFE6
:1029000030B3636D43F020036365032020E08168EA
:10291000B1F5004F02D0B1F5806FE3D120680168B6
:1029200021F040010160DDE70092002201212046F4
:10293000FFF750FF60B1636D43F020036365032030
:1029400006E00092002201212046FFF743FF08B96C
:1029500002B010BD636D43F0200363650320F7E709
:1029600000283BD010B504460023836290F8513014
:10297000002B2ED0022384F851302268136823F0F4
:10298000400313606368A2681343E268134322693B
:10299000134362691343A26902F400721343E269AC
:1029A0001343226A1343A16A22680B431360638BAB
:1029B00003F00403616A22680B4353602268D36901
:1029C00023F40063D36100206065012384F8513053
:1029D00010BD80F85030FEF7E7F9CBE701207047D3
:1029E0002DE9F04383B01D4690F85030012B00F0E4
:1029F000CC80044688469146012380F85030FFF78A
:102A000001FD074694F85160F6B2012E40F0AA800D
:102A1000B8F1000F00F0A780B9F1000F00F0A3801B
:102A2000032384F8513000236365C4F83080A4F890
:102A30003490A4F83690A363A387E3876364236488
:102A4000A368B3F5004F1ED023681A6812F0400F38
:102A500003D11A6842F040021A60E368B3F5006FD0
:102A600017D0636813B1B9F1010F4DD1226B236800
:102A700012781A73236B01332363E38E9BB2013BFD
:102A80009BB2E38640E02268136843F480431360FE
:102A9000DAE7636813B1B9F1010F16D1226B23682D
:102AA0001288DA60236B02332363E38E9BB2013B0F
:102AB0009BB2E38609E0FFF7A5FCC01BA84202D346
:102AC000B5F1FF3F59D1002D59D0E38E9BB2002BB9
:102AD00033D023689A6812F0020FECD0226B128870
:102AE000DA60236B02332363E38E9BB2013B9BB21C
:102AF000E386EAE7FFF786FCC01BA84202D3B5F1E4
:102B0000FF3F3ED1002D3ED0E38E9BB2ABB1236898
:102B10009A6812F0020FEDD0226B12781A73236BB1
:102B200001332363B4F836C01FFA8CFC0CF1FF3C70
:102B30001FFA8CFCA4F836C0E6E73A462946204640
:102B4000FFF794FE08B120236365A36833B90193AE
:102B50002368DA6801929B680193019B636D13B946
:102B6000002600E00226012384F85130002384F877
:102B70005030304603B0BDE8F0830326F3E7032668
:102B8000F1E70326EFE70326EDE70226F1E72DE95B
:102B9000F04383B01F460A9D90F85030012B00F09F
:102BA0001081044688469146012380F85030FFF793
:102BB00029FC064694F85130DBB26268012B0AD03A
:102BC000B2F5827F40F0E380A268002A40F0E980FD
:102BD000042B40F0E880B8F1000F00F0E680B9F176
:102BE000000F00F0E480002F00F0E38094F85130F3
:102BF000DBB2042B02D0052384F851300023636537
:102C0000C4F83890E787A787C4F83080E786A7869E
:102C10002364636423681A6812F0400F03D11A68B2
:102C200042F040021A60E368B3F5006F11D06368A8
:102C30000BB1012F0BD1226B236812781A73236B0F
:102C400001332363E38E9BB2013B9BB2E3860127F2
:102C50006BE063680BB1012F0BD1226B23681288E4
:102C6000DA60236B02332363E38E9BB2013B9BB29A
:102C7000E38601271CE023689A6812F0010F0ED04A
:102C8000E28F92B25AB1DA68A36B1A80A36B023357
:102C9000A363E38F9BB2013B9BB2E3870127FFF75E
:102CA000B1FB801BA84203D3B5F1FF3F40F0838006
:102CB000E38E9BB21BB9E38F9BB2002B53D02368EA
:102CC0009A6812F0020FD6D0E28E92B2002AD2D0C9
:102CD000002FD0D0226B1288DA60236B023323637B
:102CE000E38E9BB2013B9BB2E3860027C3E72368D8
:102CF0009A6812F0010F0ED0E28F92B25AB1DA68E0
:102D0000A36B1A70A36B0133A363E38F9BB2013BE8
:102D10009BB2E3870127FFF775FB831BAB4202D30E
:102D2000B5F1FF3F49D1002D49D0E38E9BB213B9D5
:102D3000E38F9BB2BBB123689A6812F0020FD6D022
:102D4000E28E92B2002AD2D0002FD0D0226B12781D
:102D50001A73236B01332363E38E9BB2013B9BB257
:102D6000E3860027C3E7324629462046FFF77EFD6B
:102D700048B9A36863B901932368DA6801929B6834
:102D80000193019B04E020236365012000E0022001
:102D9000012384F85130002384F8503003B0BDE89B
:102DA000F0830220F4E70220F2E70120F0E701209F
:102DB000EEE70120ECE70320EAE70320E8E7032041
:102DC000E6E70220EAE72DE9F04383B004468846AF
:102DD00091461D464068B0F5827F38D094F8503057
:102DE000012B00F0A980012384F85030FFF70AFB83
:102DF000074694F85160F6B2012E40F08A80B8F18F
:102E0000000F00F08780B9F1000F00F083800423E9
:102E100084F8513000236365C4F83880A4F83C90EE
:102E2000A4F83E902363A386E38623646364A368C7
:102E3000B3F5004F19D023681A6812F0400F03D180
:102E40001A6842F040021A60E368F3B13CE0A368FC
:102E5000002BC3D1042384F85130009513460A4651
:102E60002046FFF794FE06465AE02268136823F4D2
:102E700080431360DFE7FFF7C5FAC01BA84202D307
:102E8000B5F1FF3F50D1002D50D0E38F9BB2002B06
:102E900033D023689A6812F0010FECD0A26B1B7B31
:102EA0001370A36B0133A363E38F9BB2013B9BB20F
:102EB000E387EAE7FFF7A6FAC01BA84202D3B5F101
:102EC000FF3F35D1002D35D0E38F9BB2ABB12368E6
:102ED0009A6812F0010FEDD0DA68A36B1A80A36B29
:102EE0000233A363B4F83EC01FFA8CFC0CF1FF3C24
:102EF0001FFA8CFCA4F83EC0E6E73A462946204675
:102F0000FFF7E8FC08B120236365636D13B9002661
:102F100000E00226012384F85130002384F8503069
:102F2000304603B0BDE8F0830326F3E70326F1E75C
:102F30000326EFE70326EDE70226F1E7994203DCDB
:102F4000914203DA104670471846704708467047AA
:102F500000B585B08DF80C108DF80D200A23009374
:102F6000022303AA0178406AFEF78CFA05B05DF8E7
:102F700004FB70B582B004460D4616460022818DD2
:102F8000806AFFF785F945F040058DF804508DF80B
:102F900005600A23022201A9206AFFF721FD012210
:102FA000A18DA06AFFF774F902B070BD08B5037A6D
:102FB00013B1FFF7CDFF08BDFFF7DBFFFBE7F0B56F
:102FC00085B0044616461D468DF80C100A2700975A
:102FD000012303AA0178406AFEF754FA0097B3B2BE
:102FE0002A462178606AFEF709FB28B10023637046
:102FF0000123237405B0F0BD012363702374F9E746
:1030000070B582B0044615461E4641F080008DF82A
:103010000700012A03DD40F040008DF80700002280
:10302000A18DA06AFFF734F90A2301220DF10701EF
:10303000206AFFF7D5FC0A23AAB23146206AFFF7BF
:10304000C2FE0122A18DA06AFFF722F902B070BD75
:1030500010B5047A14B1FFF7B2FF10BDFFF7D0FF2F
:10306000FBE7F0B583B004460D4616461F460DF14A
:1030700007030122FFF7ECFF77B10122B2409DF870
:10308000076016438DF807609DF807202946204603
:10309000FFF78CFF03B0F0BD0122B2409DF807603E
:1030A00026EA02068DF80760EEE7000008B58446C0
:1030B000104601228CF801204FF0000E8CF810E031
:1030C000CCF820100949CCF814100949CCF8181094
:1030D0000849CCF81C10ACF82C30CCF828008CF83F
:1030E00008E01946FFF7D4F808BD00BFC3AB763B34
:1030F000D86B763BF2E4643B10B5044600222D21E8
:10310000FFF754FF10222D212046FFF74FFF082222
:103110002D212046FFF74AFF10BDF8B504460F46A3
:1031200016461D46831C06223221FFF791FFE278E6
:10313000A37843EA02231BB23B606379217941EA19
:10314000032109B23160E379A27942EA032212B283
:103150002A60F8BD30B583B0044608291BD0102979
:103160001BD0042915D000250DF1070301223121C0
:103170002046FFF76DFF9DF8072022F0130252B2A0
:103180002A4302F0EF0231212046FFF70FFF03B080
:1031900030BD0125E8E70225E6E70325E4E708B5A9
:1031A0000B4606223121FFF75CFF08BD10B504462F
:1031B000FF230022FFF7C2FEC2B21D212046FFF707
:1031C000F5FE10BD10B50446FF230022FFF7B6FE42
:1031D000C2B221212046FFF7E9FE10BD08B5CAB2F0
:1031E0002221FFF7E3FE08BD10B50446FF230022AD
:1031F000FFF7A4FEC2B223212046FFF7D7FE10BD81
:1032000010B50446FF230022FFF798FEC2B2242126
:103210002046FFF7CBFE10BD10B50446FF23002269
:10322000FFF78CFEC2B225212046FFF7BFFE10BD7E
:1032300010B50446FF230022FFF780FEC2B226210C
:103240002046FFF7B3FE10BD10B50446FF23002251
:10325000FFF774FEC2B228212046FFF7A7FE10BD7B
:1032600010B50446FF230022FFF768FEC2B22921F1
:103270002046FFF79BFE10BD08B50B46062227210E
:10328000FFF7EFFE08BD08B50B4605222721FFF723
:10329000E8FE08BD08B50B4604222721FFF7E1FE32
:1032A00008BD70B5044616461D46FFF7E5FF3146DA
:1032B0002046FFF7E8FF29462046FFF7EBFF70BDE9
:1032C00008B50B4602222721FFF7CBFE08BD08B543
:1032D0000B4601222721FFF7C4FE08BD08B50B46A7
:1032E00000222721FFF7BDFE08BD70B50446164633
:1032F0001D46FFF7E5FF31462046FFF7E8FF294668
:103300002046FFF7EBFF70BD08B50B4602222A21CD
:10331000FFF7A7FE08BD08B50B4601222A21FFF7DB
:10332000A0FE08BD08B50B4600222A21FFF799FE32
:1033300008BD70B5044616461D46FFF7E5FF314649
:103340002046FFF7E8FF29462046FFF7EBFF70BD58
:1033500008B513460A462E21FFF783FE08BD08B5BF
:1033600021B101220621FFF7F3FF08BD002206214B
:10337000FFF7EEFFF9E708B521B101220521FFF7BC
:10338000E7FF08BD00220521FFF7E2FFF9E708B5D6
:1033900021B101220221FFF7DBFF08BD002202213B
:1033A000FFF7D6FFF9E708B521B101220421FFF7A5
:1033B000CFFF08BD00220421FFF7CAFFF9E708B5D7
:1033C00021B101220321FFF7C3FF08BD0022032121
:1033D000FFF7BEFFF9E70000DFF834D0002103E07B
:1033E0000C4B5B58435004310B480C4B42189A422B
:1033F000F6D30B4A02E0002342F8043B094B9A4201
:10340000F9D3FFF7D9F900F011F8FDF78FFB7047FA
:103410000000022024470008000000207000002067
:1034200070000020C8010020FEE7000070B50D4DBF
:103430000D4C641BA4100026A64209D10B4D0C4C68
:1034400001F0A8F8641BA4100026A64205D170BDA7
:1034500055F8043B98470136EEE755F8043B98478A
:103460000136F2E71C4700081C4700081C4700080B
:103470002047000802440346934200D1704703F8F6
:10348000011BF9E770B50E46054618B183690BB903
:1034900000F088FAAB69AC6813B9284600F082FAEC
:1034A0002C4B9C4220D16C68636EDB0705D4A3894A
:1034B000980502D4A06D00F013FBA38919071DD550
:1034C0002369DBB1013EA36816F8011F013BA3602D
:1034D00039BB002B38DA22460A21284600F088F84A
:1034E000013011D00A2511E01B4B9C4201D1AC6880
:1034F000DAE71A4B9C4208BFEC68D5E7214628461C
:1035000000F0C8F80028DDD04FF0FF35636EDA0711
:1035100005D4A3899B0502D4A06D00F0E2FA2846E9
:1035200070BD002B04DAA2699A4206DC0A2904D095
:1035300023685A1C22601970C5E72246284600F00D
:1035400057F80130BFD1DFE723680A255A1C2260F3
:103550001D70DBE7A0460008C04600088046000852
:10356000024B01461868FFF78DBF00BF0C0000201A
:103570000EB400B59CB01DAB029006906FF00041F8
:10358000094807910491094953F8042B05910068F3
:10359000019302A900F00EFC029B00221A701CB0DD
:1035A0005DF804EB03B070470C0000200802FFFF39
:1035B00000B59BB0009104916FF00041059102911C
:1035C00005490391694600F0F5FB009B00221A7043
:1035D0001BB05DF804FB00BF0802FFFF13460A465C
:1035E000014602480068FFF7E3BF00BF0C0000205F
:1035F000F8B50E461446054618B183690BB900F0BC
:10360000D1F9214B9C422BD16C68A369A360A3899B
:103610001A072FD523696BB323692068C01A636921
:10362000F6B28342374604DC2146284600F026F9EC
:1036300030BBA368013BA36023685A1C22601E7044
:1036400063690130834204D0A389DB0706D50A2EC3
:1036500004D12146284600F011F988B93846F8BD52
:103660000A4B9C4201D1AC68CFE7094B9C4208BF92
:10367000EC68CAE72146284600F00CF80028CBD0B9
:103680004FF0FF37EAE700BFA0460008C046000839
:1036900080460008324B70B51D6806460C4625B1C1
:1036A000AB6913B9284600F07DF92E4B9C420FD12F
:1036B0006C68A389B4F90C2019072CD4DD0611D449
:1036C0000923336042F04003A3814FF0FF303EE016
:1036D000254B9C4201D1AC68EBE7244B9C4208BFD0
:1036E000EC68E6E7580712D5616B41B104F1440379
:1036F000994202D0304600F05BFA00236363A3894D
:1037000023F02403A3810023636023692360A3893A
:1037100043F00803A38123694BB9A38903F4207301
:10372000B3F5007F03D02146304600F001FAA089AE
:10373000B4F90C2010F001030AD00023A3606369E0
:103740005B42A361236943B910F08000BAD170BD18
:10375000810758BF6369A360F4E70020F7E700BF63
:103760000C000020A0460008C04600088046000863
:103770008A892DE9F041054610070C4658D44B685C
:10378000002B05DC0B6C002B02DC0020BDE8F08177
:10379000E66A002EF9D0002312F480522F682B60C5
:1037A00032D0606DA3895A0705D56368C01A636B70
:1037B0000BB1236CC01A00230246E66A216A284630
:1037C000B047431CA38906D129681D292CD82A4A51
:1037D000CA40D60728D500226260D9042269226037
:1037E00004D5421C01D12B6803B96065616B2F6061
:1037F0000029CAD004F14403994202D0284600F0BF
:10380000D7F900206063C1E7216A01232846B04749
:10381000411CC7D12B68002BC4D01D2B01D0162B07
:1038200001D12F60B1E7A38943F04003A381ADE745
:103830000F69002FA9D093070E6808BF4B690F606E
:1038400018BF0023A6EB07088B60B8F1000F9CDDC2
:10385000216AA66A43463A462846B047002806DC55
:10386000A38943F04003A3814FF0FF308EE7074464
:10387000A8EB0008E9E700BF0100402038B50B695C
:1038800005460C4613B90025284638BD18B1836992
:103890000BB900F087F8144B9C421BD16C68B4F94B
:1038A0000C30002BEFD0626ED00704D4990502D4FF
:1038B000A06D00F015F928462146FFF759FF636E09
:1038C000DA070546E0D4A3899B05DDD4A06D00F09E
:1038D00008F9D9E7054B9C4201D1AC68DFE7044BFE
:1038E0009C4208BFEC68DAE7A0460008C046000822
:1038F00080460008002310B50446C0E90033C0E943
:103900000433836081814366C28183611946082242
:103910005C30FFF7AFFD054B6362054BA362054BBF
:10392000E362054B2462236310BD00BFFD42000823
:103930001F430008574300087B430008014900F07B
:10394000AFB800BF7D38000870B568224D1E5543E2
:103950000E4605F1740100F077F9044640B10021EC
:10396000C0E900160C30A06005F16802FFF782FD87
:10397000204670BD014800F0B3B800BFB50100207B
:10398000014800F0AEB800BFB5010020014800F0CA
:10399000A7B800BFB6010020014800F0A2B800BFE0
:1039A000B601002010B50446FFF7F0FFA3691BB174
:1039B000BDE81040FFF7F0BFC4E912332365134B95
:1039C000134A1B68A262A34204BF0123A3612046DD
:1039D00000F020F86060204600F01CF8A06020464F
:1039E00000F018F80022E06004216068FFF782FF11
:1039F000A06801220921FFF77DFFE0680222122161
:103A0000FFF778FF0123A361D2E700BF7C460008DF
:103A10003D390008F8B50746FFF7ACFF1E4B1E689E
:103A2000B36913B93046FFF7BDFF4836D6E9013414
:103A3000013B03D533680BB33668F7E7B4F90C5094
:103A4000D5B9164BE36004F15800656600F047F8FD
:103A5000FFF796FFC4E90155C4E904552560A56147
:103A60000822294604F15C00FFF704FDC4E90D5566
:103A7000C4E912552046F8BD6834D9E70421384618
:103A8000FFF762FF044630600028D5D1FFF778FFCA
:103A90000C233B60EEE700BF7C4600080100FFFFFF
:103AA0002DE9F8430646884600F148040027D4E98A
:103AB0000195B9F1010905D52468002CF7D13846E4
:103AC000BDE8F883AB89012B07D9B5F90E30013376
:103AD00003D029463046C04707436835E9E77047B9
:103AE0007047704770B50E46B1F90E10002996B0B8
:103AF00014461D4608DAB6F90C3000222A601A0670
:103B000010D44FF480630EE06A4600F05DFC00289C
:103B1000F1DB019A02F47042A2F500535A425A4175
:103B20002A60EEE740230020236016B070BD00003D
:103B30008B8973B59D0706460C4607D504F14703EC
:103B4000236023610123636102B070BD01AB6A464B
:103B5000FFF7C8FF00990546304600F075F848B9F0
:103B6000B4F90C309A05EFD423F0030343F00203B9
:103B7000A381E3E70D4BB362A389206043F0800388
:103B8000A381009B6361019B20615BB1B4F90E10BE
:103B9000304600F02BFC28B1A38923F0030343F047
:103BA0000103A381A0890543A581CDE73D39000824
:103BB00037B5002944D051F8043C0190002BA1F105
:103BC0000404B8BFE41800F05BFC1E4A01981368B7
:103BD00033B96360146003B0BDE8304000F056BCF8
:103BE000A34208D9256861198B4201BF19685B6837
:103BF00049192160EDE71A465B680BB1A342FAD977
:103C000011685518A5420BD1246821445418A342C9
:103C10001160E0D11C685B68536021441160DAE7F1
:103C200002D90C230360D6E7256861198B4204BFD3
:103C300019685B68636004BF491921605460CAE772
:103C400003B030BDB8010020F8B5CD1C25F0030548
:103C500008350C2D38BF0C25002D064601DBA94286
:103C600003D90C2333600020F8BD00F009FC214982
:103C70000A6814469CB9204F3B6823B92146304658
:103C800000F02CFB38602946304600F027FB431C2F
:103C900023D10C233360304600F0F8FBE3E72368C0
:103CA0005B1B17D40B2B03D923601C44256004E055
:103CB0006368A2420CBF0B605360304600F0E6FB25
:103CC00004F10B00231D20F00700C21ACCD01B1AF0
:103CD000A350C9E722466468CCE7C41C24F003045F
:103CE000A042E3D0211A304600F0F8FA0130DDD1CD
:103CF000CFE700BFB8010020BC0100202DE9F0474C
:103D00008E689E4282460C4690461F4638D88A8965
:103D100012F4906F32D025680969A5EB0109656935
:103D200005EB450505EBD57501334B446D109D4200
:103D300038BF1D46530531D52946FFF785FF064696
:103D400050B90C23CAF80030A38943F04003A38183
:103D50004FF0FF30BDE8F08721694A4600F068FB6C
:103D6000A38923F4906343F08003A38126616561F6
:103D70004E44A5EB09052660A5603E46BE4200D92B
:103D80003E4620683246414600F060FBA3689B1B1C
:103D9000A3602368334423600020DBE72A4600F059
:103DA0007BFB06460028E1D121695046FFF700FF62
:103DB000C7E700002DE9F04F98468B891B069DB0A0
:103DC00007460D4614460ED50B6963B94021FFF72F
:103DD0003BFF2860286120B90C233B604FF0FF3087
:103DE000D1E040236B610023099320238DF8293013
:103DF000CDF80C803023DFF8A8818DF82A304FF001
:103E0000010923469A4613F8012B0AB1252AF9D154
:103E1000BAEB040B0BD05B46224629463846FFF727
:103E20006DFF013000F0AA80099A5A4409929AF86D
:103E30000030002B00F0A28000234FF0FF32CDE9CC
:103E400005230AF1010A049307938DF853301A935E
:103E50005446052214F8011B5148FCF7C9F9049A8D
:103E6000D8B9D00644BF20238DF85330110744BF82
:103E70002B238DF853309AF800302A2B15D0079A4F
:103E8000544600204FF00A0C214611F8013B303B0C
:103E9000092B4ED9B0B1079214E0A0EB080309FA40
:103EA00003F313430493A246D2E7039B191D1B6837
:103EB0000391002BBBBF5B4242F0020207930793C2
:103EC000B8BF049223782E2B0CD163782A2B35D1DE
:103ED000039B1A1D1B680392002BB8BF4FF0FF33E2
:103EE00002340593DFF8C8A0217803225046FCF77E
:103EF0007FF940B14023A0EB0A0003FA00F0049BD5
:103F000003430134049314F8011B26488DF828104C
:103F10000622FCF76DF9002838D0234B1BBB039B0E
:103F2000073323F0070308330393099B33440993B2
:103F300067E70CFB02320C460120A5E700230134A1
:103F4000059319464FF00A0C204610F8012B303A21
:103F5000092A03D9002BC5D00591C3E70CFB012129
:103F600004460123F0E703AB00932A460F4B04A954
:103F70003846AFF30080421C0646D6D1AB895B06BB
:103F80003FF52CAF09981DB0BDE8F08F03AB00934F
:103F90002A46064B04A9384600F07AF8EBE700BF42
:103FA000E0460008EA46000800000000FD3C00086A
:103FB000E64600082DE9F047164699468A680B69DF
:103FC000DDF820809342B8BF1346336091F8432058
:103FD00007460C460AB1013333602368990642BF95
:103FE000336802333360256815F0060506D104F105
:103FF000190AE36832689B1AAB4226DC94F8432026
:10400000131E226818BF012392062BD404F1430229
:1040100049463846C04701301ED02368E5683268FB
:1040200003F00603042B08BFAD1AA36822690CBF76
:1040300025EAE57500259342C4BF9B1AED180026BA
:104040001A34B5421AD1002008E0012352464946ED
:104050003846C047013003D14FF0FF30BDE8F0874C
:104060000135C6E7E1185A1C302081F8430022448C
:1040700094F8451082F843100233C7E70123224623
:1040800049463846C0470130E6D00136D9E700003E
:104090002DE9FF470F7E0C9D782F914680460C46F8
:1040A0009A4601F1430207D8622F0AD8002F00F088
:1040B000D880582F00F0A38004F1420584F84270A4
:1040C0003AE0A7F16303152BF6D801A151F823F0CC
:1040D000294100083D410008B9400008B9400008E6
:1040E000B9400008B94000083D410008B940000847
:1040F000B9400008B9400008B9400008494200082A
:104100006D4100082B420008B9400008B940000882
:104110006B420008B94000086D410008B940000832
:10412000B9400008334200082B681A1D1B682A603A
:1041300004F1420584F842300123A3E02068296895
:10414000060601F104030AD50E682B60002E03DA7F
:104150002D23764284F843305E480A2319E00E6826
:104160002B6010F0400F18BF36B2EFE72B682068C5
:10417000191D2960010601D51E6802E04606FBD51F
:104180001E8854486F2F0CBF08230A23002184F88F
:1041900043106568A560002DA2BF216821F00401CD
:1041A00021600EB9002D4DD01546B6FBF3F103FB8F
:1041B0001167C75D05F8017D3746BB420E46F4D94D
:1041C000082B0BD12368DE0708D523696168994263
:1041D000DEBF302305F8013C05F1FF35521B22619B
:1041E000CDF800A04B4603AA21464046FFF7E2FE69
:1041F00001304CD14FF0FF3004B0BDE8F0873548B6
:1042000081F845702968236851F8046B29601D0600
:1042100014D5DF0744BF43F0200323601EB9236891
:1042200023F0200323601023B0E7236843F020032A
:1042300023607823284884F84530E3E7590648BFCF
:10424000B6B2E6E71546BBE72B6826686169181D1C
:10425000286035061B6801D5196002E07006FBD5A1
:104260001980002323611546BAE72B681A1D2A60BE
:104270001D68626800212846FBF7BAFF08B1401BA1
:10428000606063682361002384F84330A8E72369F2
:104290002A4649464046D0470130ABD023689B07A9
:1042A00013D4E068039B9842B8BF1846A4E70123E3
:1042B000324649464046D04701309BD00135E3683D
:1042C00003995B1AAB42F2DCEBE7002504F1190617
:1042D000F5E700BFF14600080247000838B5064D73
:1042E0000023044608462B6000F03EF9431C02D12F
:1042F0002B6803B1236038BDC001002010B50C4607
:10430000B1F90E1000F0EEF80028ABBF636DA38981
:104310001B1823F48053ACBF6365A38110BD2DE946
:10432000F0411F468B89DB0505460C46164605D530
:10433000B1F90E100223002200F068F8A389B4F945
:104340000E1023F48053A38132463B462846BDE835
:10435000F04100F017B810B50C46B1F90E1000F09E
:1043600055F8431CA38915BF606523F4805343F4BB
:104370008053A38118BFA38110BDB1F90E1000F0C6
:1043800013B8000038B5074D044608461146002210
:104390002A601A4600F0F6F8431C02D12B6803B1DC
:1043A000236038BDC001002038B5064D0023044607
:1043B00008462B6000F0B0F8431C02D12B6803B113
:1043C000236038BDC001002038B5074D00230446E6
:1043D000084611462B6000F0A7F8431C02D12B6859
:1043E00003B1236038BD00BFC001002038B5064DC1
:1043F0000023044608462B6000F09EF8431C02D1BF
:104400002B6803B1236038BDC001002038B5074DCB
:1044100004460846114600222A601A4600F094F825
:10442000431C02D12B6803B1236038BDC0010020BA
:104430000A44914200F1FF3300D1704710B511F8E2
:10444000014B03F8014F9142F9D110BD884210B5DC
:1044500001EB020402D98442234607D8431EA1423D
:1044600008D011F8012B03F8012FF8E702440146A8
:104470008A4200D110BD13F8014D02F8014DF7E753
:104480000148FFF72DBB00BFB40100200148FFF732
:1044900028BB00BFB4010020F8B5074614460E46FD
:1044A00021B9BDE8F8401146FFF7CEBB22B9FFF7AE
:1044B0007FFB25462846F8BD00F026F8A0420FD223
:1044C00021463846FFF7C0FB05460028F2D03146AA
:1044D0002246FFF7ADFF31463846FFF769FBE9E7B3
:1044E0003546E7E738B5074D044608461146002231
:1044F0002A601A4600F030F8431C02D12B6803B141
:10450000236038BDC001002051F8043C181F002B67
:10451000BCBF0B58C0187047024B58221A604FF0AE
:10452000FF307047C0010020024B58221A604FF044
:10453000FF307047C0010020024B58221A60002053
:10454000704700BFC0010020024B58221A604FF094
:10455000FF307047C0010020024B58221A604FF014
:10456000FF307047C0010020044A05491368002B42
:1045700008BF0B461844106018467047C40100205D
:10458000C8010020024B58221A604FF0FF307047DC
:10459000C0010020F8B500BFF8BC08BC9E467047BB
:0C45A000F8B500BFF8BC08BC9E46704790
:1045AC00783D256420793D2564207A3D2564200DD5
:1045BC000A0000005461702044657465637465647E
:1045CC00000000005365636F6E64205461702044DA
:1045DC006574656374656400506C6179696E67001D
:1045EC005363616E6E696E67204932432062757346
:1045FC003A0D00003078255800000000307825581E
:10460C000D0A00000D0000005363616E6E696E6749
:10461C0020493243206275733A200D0A00000000D5
:10462C0068656C6C6F20776F726C6400436F6E6E94
:10463C00656374656420746F20554152542054771F
:10464C006F0D0A0049324320696E697469616C69A7
:10465C007A65640D0A0000000000000000000000F4
:10466C00010203040607080900000000010203040C
:10467C0010000020000000000000000000000000FE
:10468C00000000000000000000000000000000001E
:10469C00000000000000000000000000000000000E
:1046AC0000000000000000000000000000000000FE
:1046BC0000000000000000000000000000000000EE
:1046CC0000000000000000000000000000000000DE
:1046DC0000000000232D302B2000686C4C00656618
:1046EC006745464700303132333435363738394137
:1046FC00424344454600303132333435363738394D
:08470C00616263646566000050
:08471400ACBBFF7F01000000B7
:04471C00C5010008CB
:04472000A1010008EB
:1047240001000000100000000024F400100000202C
:1047340000000000A0460008C046000880460008AB
:104744000000000000000000000000000000000065
:104754000000000000000000000000000000000055
:104764000000000000000000000000000000000045
:104774000000000000000000000000000000000035
:104784000000000000000000000000000000000025
:04000005080033D9E3
:00000001FF
